{
  "contractName": "register",
  "abi": [
    {
      "constant": false,
      "inputs": [
        {
          "internalType": "bytes32",
          "name": "_name",
          "type": "bytes32"
        },
        {
          "internalType": "bytes32",
          "name": "_email",
          "type": "bytes32"
        },
        {
          "internalType": "bytes32",
          "name": "_mobile",
          "type": "bytes32"
        },
        {
          "internalType": "bytes32",
          "name": "_aadhaar",
          "type": "bytes32"
        },
        {
          "internalType": "bytes32",
          "name": "_dob",
          "type": "bytes32"
        },
        {
          "internalType": "bytes32",
          "name": "_gender",
          "type": "bytes32"
        },
        {
          "internalType": "bytes32",
          "name": "_password",
          "type": "bytes32"
        }
      ],
      "name": "addAccount",
      "outputs": [],
      "payable": false,
      "stateMutability": "nonpayable",
      "type": "function"
    },
    {
      "constant": true,
      "inputs": [],
      "name": "viewAccounts",
      "outputs": [
        {
          "internalType": "bytes32[]",
          "name": "",
          "type": "bytes32[]"
        },
        {
          "internalType": "bytes32[]",
          "name": "",
          "type": "bytes32[]"
        },
        {
          "internalType": "bytes32[]",
          "name": "",
          "type": "bytes32[]"
        }
      ],
      "payable": false,
      "stateMutability": "view",
      "type": "function"
    },
    {
      "constant": true,
      "inputs": [
        {
          "internalType": "bytes32",
          "name": "_aadhaar",
          "type": "bytes32"
        },
        {
          "internalType": "bytes32",
          "name": "_password",
          "type": "bytes32"
        }
      ],
      "name": "loginAccount",
      "outputs": [
        {
          "internalType": "bool",
          "name": "",
          "type": "bool"
        }
      ],
      "payable": false,
      "stateMutability": "view",
      "type": "function"
    }
  ],
  "bytecode": "0x608060405234801561001057600080fd5b5061062a806100206000396000f3fe608060405234801561001057600080fd5b50600436106100415760003560e01c806308e6085a14610046578063ba050f1714610135578063f229ee7b1461019f575b600080fd5b61004e6101ef565b60405180806020018060200180602001848103845287818151815260200191508051906020019060200280838360005b8381101561009957808201518184015260208101905061007e565b50505050905001848103835286818151815260200191508051906020019060200280838360005b838110156100db5780820151818401526020810190506100c0565b50505050905001848103825285818151815260200191508051906020019060200280838360005b8381101561011d578082015181840152602081019050610102565b50505050905001965050505050505060405180910390f35b61019d600480360360e081101561014b57600080fd5b81019080803590602001909291908035906020019092919080359060200190929190803590602001909291908035906020019092919080359060200190929190803590602001909291905050506102fb565b005b6101d5600480360360408110156101b557600080fd5b8101908080359060200190929190803590602001909291905050506104e7565b604051808215151515815260200191505060405180910390f35b60608060606000600360068280548060200260200160405190810160405280929190818152602001828054801561024557602002820191906000526020600020905b815481526020019060010190808311610231575b505050505092508180548060200260200160405190810160405280929190818152602001828054801561029757602002820191906000526020600020905b815481526020019060010190808311610283575b50505050509150808054806020026020016040519081016040528092919081815260200182805480156102e957602002820191906000526020600020905b8154815260200190600101908083116102d5575b50505050509050925092509250909192565b600760003373ffffffffffffffffffffffffffffffffffffffff1673ffffffffffffffffffffffffffffffffffffffff16815260200190815260200160002060009054906101000a900460ff161561035257600080fd5b6001600760003373ffffffffffffffffffffffffffffffffffffffff1673ffffffffffffffffffffffffffffffffffffffff16815260200190815260200160002060006101000a81548160ff021916908315150217905550600087908060018154018082558091505090600182039060005260206000200160009091929091909150555060018690806001815401808255809150509060018203906000526020600020016000909192909190915055506002859080600181540180825580915050906001820390600052602060002001600090919290919091505550600384908060018154018082558091505090600182039060005260206000200160009091929091909150555060048390806001815401808255809150509060018203906000526020600020016000909192909190915055506005829080600181540180825580915050906001820390600052602060002001600090919290919091505550600681908060018154018082558091505090600182039060005260206000200160009091929091909150555050505050505050565b6000806000809050600760003373ffffffffffffffffffffffffffffffffffffffff1673ffffffffffffffffffffffffffffffffffffffff16815260200190815260200160002060009054906101000a900460ff1661054557600080fd5b600060068054905011156105ec57600091505b60068054905082101561059557836006838154811061057357fe5b90600052602060002001541415610588578190505b8180600101925050610558565b83600682815481106105a357fe5b90600052602060002001541480156105d1575084600382815481106105c457fe5b9060005260206000200154145b156105e1576001925050506105ef565b6000925050506105ef565b50505b9291505056fea265627a7a72315820030f0ba93fff732a93d29ede013525f8b6b02b3b43b84f3ebc9d5d92b153a4f164736f6c63430005100032",
  "source": "pragma solidity 0.5.16;\r\n\r\ncontract register {\r\n\tbytes32[] name;\r\n\tbytes32[] email;\r\n\tbytes32[] mobile;\r\n\tbytes32[] aadhaar;\r\n\tbytes32[] dob;\r\n\tbytes32[] gender;\r\n\tbytes32[] password;\r\n\tmapping(address => bool) internal users;\r\n\r\n\tfunction addAccount(bytes32 _name, bytes32 _email, bytes32 _mobile, bytes32 _aadhaar, bytes32 _dob, bytes32 _gender, bytes32 _password) public {\r\n\t\trequire (!users[msg.sender]);\r\n\t\t\r\n\t\tusers[msg.sender]=true;\r\n\t\tname.push(_name);\r\n\t\temail.push(_email);\r\n\t\tmobile.push(_mobile);\r\n\t\taadhaar.push(_aadhaar);\r\n\t\tdob.push(_dob);\r\n\t\tgender.push(_gender);\r\n\t\tpassword.push(_password);\r\n\t}\r\n\r\n\tfunction viewAccounts() public view returns(bytes32[] memory, bytes32[] memory,bytes32[] memory) {\r\n\t\treturn(name,aadhaar,password);\r\n\t}\r\n\r\n\tfunction loginAccount(bytes32 _aadhaar, bytes32 _password) public view returns(bool){\r\n\t\t\r\n\t\tuint i;\r\n\t\tuint j=0;\r\n\r\n\t\trequire(users[msg.sender]);\r\n\r\n\t\tif(password.length>0) {\r\n\t\t\tfor(i=0;i<password.length;i++) {\r\n\t\t\t\tif((password[i])==(_password)) {\r\n\t\t\t\t\tj=i;\r\n\t\t\t\t}\r\n\t\t\t}\r\n\t\t\r\n\t\t\r\n\t\t\tif(password[j]==_password && aadhaar[j]==_aadhaar) {\r\n\t\t\t\treturn true;\r\n\t\t\t}\r\n\t\t\telse {\r\n\t\t\t\treturn false;\r\n\t\t\t}\r\n\t\t}\r\n\t}\r\n}",
  "sourcePath": "C:/Users/maddy/Desktop/evm/contracts/register.sol",
  "compiler": {
    "name": "solc",
    "version": "0.5.16+commit.9c3226ce.Emscripten.clang"
  },
  "schemaVersion": "3.2.5",
  "updatedAt": "2021-06-29T10:53:42.567Z",
  "networkType": "ethereum",
  "devdoc": {
    "methods": {}
  },
  "userdoc": {
    "methods": {}
  }
}